:100000000C9460000C947D000C947D000C947D0099
:100010000C947D000C947D000C947D000C947D006C
:100020000C947D000C947D000C947D000C947D005C
:100030000C947D000C947D000C94B1040C947D0014
:100040000C947D000C947D000C94DA030C947D00DC
:100050000C947D000C947D000C947D000C947D002C
:100060000C947D000C947D004241445F464F524DFC
:1000700041540054494D454F555400554E4B4E4F39
:10008000574E5F434F4D4D414E44004241445F4CFB
:10009000454E475448004241445F434845434B5313
:1000A000554D004E41434B00524553455400504F6F
:1000B0004E470050494E470050494E0055494400B4
:1000C00011241FBECFEFD8E0DEBFCDBF11E0A0E00E
:1000D000B1E0E8EAFBE102C005900D92A836B10755
:1000E000D9F721E0A8E6B1E001C01D92AF3FB20709
:1000F000E1F70E94610D0C94D20D0C9400000E9457
:1001000079090E9471090C9481090E947F000E9464
:1001100074090C946C0910927B0110927C0110926E
:10012000790110927A011092730110927401109269
:100130006A010E94F4060E942C070E947F000C9422
:100140007409CF93C3E00E947F000E9474092FEFCF
:1001500083EC99E0215080409040E1F700C000001E
:100160000E947F002FEF83EC99E021508040904067
:10017000E1F700C00000C15031F7CF910C948B0023
:10018000CF93C3E00E947F000E947C092FEF83EC95
:1001900099E0215080409040E1F700C000000E94AB
:1001A0007F002FEF83EC99E0215080409040E1F7F1
:1001B00000C00000C15031F7CF910C948B0065E076
:1001C00084E290E00E94DE0265E085E290E00E9419
:1001D000FD020E943E0460E875E280E090E00E942B
:1001E00028030E94520D0E940D070E94FF060E94E4
:1001F000D1050E944D070E94520760EA76E881E02F
:1002000090E00E94A8080E946A090E94CE0A1092FB
:100210006901109268010C948B000F931F93CF9388
:10022000DF93CDB7DEB7AB970FB6F894DEBF0FBE46
:10023000CDBF80917B0190917C018130910508F0C8
:100240006EC00E947F000E947409BE01655D7F4FF1
:10025000CE0189960E94FE05892BB9F08091680134
:10026000843168F010926901AB960FB6F894DEBF46
:100270000FBECDBFDF91CF911F910F9108958F5F7A
:1002800080936801843181F7EDCF109268018091ED
:100290006901813049F38E01035E1F4FC8010E943E
:1002A0003B06892B09F781E0809369018FA1FE014C
:1002B0003196D801AF019A2F901B9817E8F0FA01F8
:1002C000E80FF11DE80FF11D1082CA010E94D00A4B
:1002D0000E94910681E080937B0110927C010E9434
:1002E000470460936F017093700180937101909344
:1002F00072010E947F00B8CF9D91292F22952F7007
:10030000903A48F4205D20839F709A3030F4905DDD
:1003100091833296D0CF295CF6CF995CF9CF09F062
:100320004BC00E94470400916F0110917001209111
:10033000710130917201601B710B820B930B693B51
:100340007B408105910518F00E94C0008DCFCE0141
:1003500001960E94860B892B09F086CF8B819C81A8
:100360008230910509F014C129813A8120937901E5
:1003700030937A01109273011092740180937B0183
:1003800090937C010E94470460936F017093700109
:1003900080937101909372010E94470460936B01F6
:1003A00070936C0180936D0190936E0181E0809356
:1003B0006A010E94850058CF8230910509F0ADC0D6
:1003C0000E94470400916B0110916C0120916D0116
:1003D00030916E01601B710B820B930B6039714081
:1003E0008105910598F00E94470460936B0170931A
:1003F0006C0180936D0190936E0180916A0181116F
:1004000024C00E94850081E080936A010E94470415
:1004100000916F0110917001209171013091720172
:10042000601B710B820B930B613177428105910543
:1004300088F0AB960FB6F894DEBF0FBECDBFDF914C
:10044000CF911F910F910C948B000E947F0010920E
:100450006A01DCCF0E948C07182F811509F404CFA4
:100460008A3281F41092730110927401AB960FB628
:10047000F894DEBF0FBECDBFDF91CF911F910F91DA
:100480000C94850080ED810F8A3008F0EDCE0E943B
:100490007F000E946C098FEF91EE24E08150904024
:1004A0002040E1F700C000000E94850080917301A8
:1004B000843068F4E82FF0E0EC58FE4F10838F5F33
:1004C00080937301E82FF0E0EC58FE4F10828430E7
:1004D00009F0CACE64E771E08091790190917A01C8
:1004E0000E94D70A83E080937B0110927C010E94D6
:1004F000470460936F017093700180937101909332
:100500007201AB960FB6F894DEBF0FBECDBFDF9180
:10051000CF911F910F910C947F00039709F0A4CE07
:100520000E94470400916F011091700120917101A8
:1005300030917201601B710B820B930B693B7B4006
:100540008105910508F000CFCE0101960E94860B2F
:10055000892B09F089CE8B819C8184309105C1F46F
:100560000E947F000E946C090E9425070E94E706F6
:100570008FEF93E224EF815090402040E1F700C0DC
:1005800000000E94F4060E942C070E948B006CCE93
:100590009C01255031092230310518F08B3091052E
:1005A00019F40E94A10060CE8730910509F4CCCEE9
:1005B000099709F059CE0E94E40A56CEFC019081B9
:1005C00021E001C0220F6A95EAF7922B90830895EB
:1005D000FC01408121E001C0220F6A95EAF72095D5
:1005E000242320830895FC01908121E001C0220F83
:1005F0006A95EAF7922B908308950C94E802FC0127
:10060000908121E001C0220F6A95EAF7922790833A
:100610000895CF93DF9300D00F92CDB7DEB76A83F2
:100620007B834983642F0E94E802EA81FB81408139
:1006300061E070E0098002C0660F771F0A94E2F75C
:10064000462B40830F900F900F90DF91CF9108952C
:10065000CF93DF939B01AC0184E0220F331F441F33
:10066000551F8A95D1F760E074E284EF90E00E9414
:10067000960DE90121978DE791E00E940204D09345
:10068000C500C093C4001092C00088E98093C100E7
:1006900086E08093C200DF91CF9108959091C000D1
:1006A00095FFFCCF8093C6000895CF93DF93EC01B4
:1006B0008881811103C0DF91CF91089521968A30FE
:1006C00019F48DE00E944E03FE0182910E944E03B8
:1006D000EFCFF894BC018DE791E00E942904789453
:1006E0000895F89480917F0178940895CF93C82F4E
:1006F000E82FE295EF70F0E0E050FF4F80810E941C
:100700004E03CF70EC2FF0E0E050FF4F8081CF918F
:100710000C944E03CF93DF930F92CDB7DEB789834E
:10072000892F0E94760389810F90DF91CF910C94DD
:100730007603FF920F931F93CF93DF9300D000D0E7
:10074000CDB7DEB7282F81110CC080E30F900F903A
:100750000F900F90DF91CF911F910F91FF900C940C
:100760004E03FE013196F12C8F01F394822F6AE043
:100770000E94760D905D90832A3028F03196282FC4
:1007800084E0F812F2CFFA94F801EF0DF11D8081A8
:100790000E944E03F110F7CF0F900F900F900F9023
:1007A000DF91CF911F910F91FF9008958BE291E01F
:1007B0000C9455031F920F920FB60F9211242F9392
:1007C0003F934F935F936F937F938F939F93AF93D9
:1007D000BF93EF93FF936091C6008DE791E00E9475
:1007E0001404FF91EF91BF91AF919F918F917F91F1
:1007F0006F915F914F913F912F910F900FBE0F908E
:100800001F901895FC011082118212820895FC013C
:10081000928181E0911180E00895FC01928181E054
:10082000903408F480E00895FC018281803478F4EB
:10083000A081AE0FBF2FB11D13966C9380818F5F87
:100840008F73808382818F5F828381E0089580E04F
:100850000895FC018281811581F0A181AE0FBF2F27
:10086000B11D13968C91DB018C9381818F5F8F7307
:10087000818382818150828381E0089582E084BDFA
:1008800093E095BD80936E0089EF87BD08952FB7E3
:10089000F8946091C0017091C1018091C201909162
:1008A000C3012FBF0895E4E6F0E080818F7D80834F
:1008B000EEE68081826080830895EEE6F0E080813C
:1008C0008D7F8083E4E680818062808308958FB786
:1008D000F8941092C0011092C1011092C2011092BE
:1008E000C3018FBF0895EFB7F8942091C0013091F4
:1008F000C1014091C2015091C301DC01CB01820FC3
:10090000931FA41FB51F8093C0019093C101A093B2
:10091000C201B093C301EFBF0895EF92FF920F930E
:100920001F93EFB7F8942091C0013091C10140911D
:10093000C2015091C30179018A01E61AF70A080B36
:10094000190BC701D8018093C0019093C101A093F6
:10095000C201B093C301EFBF1F910F91FF90EF90C1
:1009600008951F921FB61F9211248F939F93AF93E8
:10097000BF938091C0019091C101A091C201B0913B
:10098000C3010196A11DB11D8093C0019093C101C7
:10099000A093C201B093C301BF91AF919F918F917A
:1009A0001F901FBE1F901895CF93DF930F92CDB766
:1009B000DEB769832A98880F8E770E945B0D898144
:1009C0000E945B0D2A9A0F90DF91CF9108952A988B
:1009D000880F8E7780680E945B0D80E00E945B0D1F
:1009E0002A9A0895CF93DF9300D0CDB7DEB78983DD
:1009F0006A830E94E7046A81682B89810F900F90B7
:100A0000DF91CF910C94D404CF93DF9300D0CDB776
:100A1000DEB789836A830E94E7046A816095682350
:100A200089810F900F90DF91CF910C94D404EF92B5
:100A3000FF920F931F93CF93DF9300D000D000D08D
:100A40000F92CDB7DEB78D83E62E4E835F83298369
:100A50003A830B831C8360E081E0192F0E94D40449
:100A60006FE784E00E94D40460E88AE00E94D40426
:100A70000D81E00EF12EF11CF80161918F0189E0EA
:100A80000E94D4040E151F05B9F76CE081E00E94A6
:100A9000D40460E88DE00E94F204E12CF12C84E0A3
:100AA0000E94E704182F8073C9F410FF0FC082E082
:100AB00090E027960FB6F894DEBF0FBECDBFDF9152
:100AC000CF911F910F91FF90EF900895FFEFEF1AD4
:100AD000FF0A88E8E81683E1F80609F760E88DE088
:100AE0000E94040598E8E91693E1F90601F386E00F
:100AF0000E94E704837191F584E090E013FDD9CF63
:100B00008AE00E94E704182F8CE00E94E7048770B7
:100B1000EB81FC8180838E819F81892BA9F0E98103
:100B2000FA81F0801F1508F4F12E0E811F81C80193
:100B30008F0D911D8B839C838B819C8108171907D6
:100B400031F4E981FA81F08280E090E0B2CF89E06F
:100B50000E94E704F80181938F01EECF81E090E0DD
:100B6000A8CF6FE081E00E94D4042FEF80E792E0ED
:100B7000215080409040E1F700C00000089587E3D5
:100B80000C94E70484E10E94E7048370833021F031
:100B900063E084E10C94F204089563E084E10C9432
:100BA0000405229A209A2A9A28988FE39FE10197B8
:100BB000F1F700C00000289A8FE39CE90197F1F754
:100BC00000C000000E94B1056DE88AE20E94D404D2
:100BD0006EE38BE20E94D4046EE18DE20E94D404A5
:100BE00060E08CE20E94D40460E485E10E94D404B9
:100BF0006DE381E10E94D4040C94C205CF92DF9290
:100C0000EF92FF920F931F93CF93DF9300D00F9239
:100C1000CDB7DEB76C017B0186E28A8382E08983EF
:100C2000C114D10471F481E090E00F900F900F9007
:100C3000DF91CF911F910F91FF90EF90DF90CF90B8
:100C40000895672B81F367E08DE00E94D4048E0144
:100C50000D5F1F4F9E012F5F3F4FA60161E0CE0148
:100C600002960E941705009701F729812230D9F6D4
:100C7000F7012083DACFEF92FF920F931F93CF9368
:100C8000DF93CDB7DEB72B970FB6F894DEBF0FBE5C
:100C9000CDBF7C01892B81F421E030E0C9012B9686
:100CA0000FB6F894DEBF0FBECDBFDF91CF911F917D
:100CB0000F91FF90EF90089560E08DE00E94D404C2
:100CC00085E08B8783E9898380E28A831B821C828B
:100CD0008E01065F1F4F9E01255F3F4FAE014F5FA4
:100CE0005F4F62E0CA010E9417059C01892BB1F693
:100CF0009B85943088F269815A814B818C81943034
:100D000039F0962F9527942798277D817913C4CFA2
:100D1000F701608351834283838384E08287138653
:100D2000BDCF0F931F93CF93DF9300D000D000D09F
:100D3000CDB7DEB71E8280E589831A8260E081E04C
:100D40000E94D40464E085E00E94D40460E88AE054
:100D50000E94D40460E589E00E94D40460E089E048
:100D60000E94D40463E081E00E94D40408E813E107
:100D700085E00E94E70482FF24C060E081E00E94D9
:100D8000D40482E20E94E7048B8381E20E94E7049C
:100D90008C838E010B5F1F4F9E012A5F3F4F40E007
:100DA00050E064E0CE0101960E9417050F900F906D
:100DB0000F900F900F900F90DF91CF911F910F9197
:100DC000089501501040A1F681E090E0EFCFE0EBF4
:100DD000F0E0808180618083E1EB8081887F808387
:100DE0008081856080830895E0EBF0E080818F7ED4
:100DF0008083E1EB8081887F80835B980895539A9C
:100E0000E0EBF0E010821092B1008081826080837C
:100E10008DE88093B3000C94F406219AA0E8B0E02A
:100E20008C9182608C93E1E8F0E08081886180831E
:100E30008C9180688C9380818260808380E49CE9BF
:100E40009093870080938600089580ED97E09093BB
:100E5000890080938800089580EA9FE0909389003C
:100E60008093880008955A9A8AE18A95F1F700C024
:100E70005A9808959091C401892B8093C4010E94CF
:100E80005B0D0C94330780959091C4018923809366
:100E9000C4010E945B0D0C943307529A5A988FEF4D
:100EA0000C94430757988BB1806F8BB90895CF93FB
:100EB000C0E08FE00E943A0784E0C23039F088E059
:100EC000C33021F081E0C13009F482E00E94430781
:100ED0002AE12A95F1F700C04F9B0CC04E9B16C02B
:100EE0004D9B16C04C9B16C0CF5FC43011F780E0FD
:100EF000CF910895E0E024E0C29FC00111248F5EED
:100F00009E4FE80FF92FF11D8081F2CFE1E0F3CF82
:100F1000E2E0F1CFE3E0EFCFCF930E945707C82F75
:100F2000811104C0C0E08C2FCF9108952FEF89EF7D
:100F300090E0215080409040E1F700C000000E9406
:100F400057078C13EFCF0E945707811561F38FE18C
:100F50009EE40197F1F700C00000F5CFCF93DF9337
:100F60000F92CDB7DEB70E94C00880ED0E94DC086A
:100F700080E00E94DC080E94C00881ED0E94DC082D
:100F80000E94FB0889830E94D40889810F90DF9119
:100F9000CF910895CF93DF930F92CDB7DEB70E9424
:100FA000AE0789830E94C00880ED0E94DC0880E0C3
:100FB0000E94DC0889818F770E94DC080F90DF9106
:100FC000CF910C94D408CF93DF930F92CDB7DEB7B7
:100FD0000E94AE0789830E94C00880ED0E94DC0851
:100FE00080E00E94DC08898180680E94DC080F9004
:100FF000DF91CF910C94D408CF93DF93EC010E9442
:10100000C00880ED0E94DC0880E00E94DC08888136
:101010006AE00E94760D8295807F892B8F770E94EF
:10102000DC0889816AE00E94760D8295807F892B99
:101030000E94DC088A816AE00E94760D8295807F9A
:10104000892B0E94DC088B816AE00E94760D8295D4
:10105000807F892B0E94DC088C816AE00E94760DDB
:101060008295807F892B0E94DC088D816AE00E9436
:10107000760D8295807F892B0E94DC088E816AE044
:101080000E94760D8295807F892B0E94DC08DF917B
:10109000CF910C94D4081F93CF93DF93EC010E945F
:1010A000C00880ED0E94DC0880E00E94DC080E94FD
:1010B000C00881ED0E94DC080E94F108982F9295EB
:1010C00097701AE08F70919F800D112488830E9481
:1010D000F108982F92959F708F70919F800D112429
:1010E00089830E94F108982F929593708F70919F39
:1010F000800D11248A830E94F108982F92959F7089
:101100008F70919F800D11248B830E94F108982F7E
:1011100092959F708F70919F800D11248C830E94F7
:10112000F108982F92959F708F70919F800D1124D8
:101130008D830E94FB08982F92959F708F70919FCE
:10114000800D11248E83DF91CF911F910C94D408D0
:101150009B01AC011092B90060E074E284EF90E072
:101160000E94960D20513109410951095695479524
:10117000379527952093B80084E08093BC000895AC
:1011800084EA8093BC008091BC0087FFFCCF9091E3
:10119000B900987F21E0903109F420E081E0983097
:1011A00009F480E08223089584E98093BC00809153
:1011B000BC0084FDFCCF08958093BB0084E880933D
:1011C000BC008091BC0087FFFCCF9091B900987F54
:1011D000983129F0983219F081E0903409F480E0D8
:1011E000089584EC8093BC008091BC0087FFFCCF05
:1011F0008091BB00089584E88093BC008091BC007E
:1012000087FFFCCF8091BB000895CF93DF9300D080
:101210000F92CDB7DEB78B8369834A830E94C008E3
:10122000811549F081E0898389810F900F900F909B
:10123000DF91CF9108958B81880F0E94DC08811186
:10124000F1CF89810E94DC088111ECCF8A810E9454
:10125000DC0889838111E6CF0E94D408E5CFCF93C3
:10126000DF9300D000D0CDB7DEB78C8369834A838B
:101270005B830E94C008811551F081E089838981D8
:101280000F900F900F900F90DF91CF910895EC8108
:10129000EE0FEC838E2F0E94DC088111EECF898146
:1012A0000E94DC088111E9CF0E94C0088111E5CFBE
:1012B0008C8181600E94DC0889838111DECF0E94CD
:1012C000FB08EA81FB8180830E94D408D8CF80EE9E
:1012D0000C9443070C9467090E94670980E40C94FE
:1012E0003A0780E40C943A070E94670980E20C9464
:1012F0003A0780E20C9443070E94670980E80C9447
:101300003A0780E80C9443070E94670980EC0C942C
:101310003A0780EC0C9443070E94670980E60C941E
:101320003A0780E60C9443070E94670980EA0C9410
:101330003A0780EA0C94430780EE0C943A070C9429
:1013400067091092FD011092FE011092FC011092AB
:10135000FB011092FA011092F6011092F70110921F
:10136000F8011092F9010895DC01FB019C9191159F
:1013700051F08081811101C008951196319698171E
:10138000A9F380E0089581E090819111FACF08954A
:10139000CF93DF93EC01FE018491811103C0DF91B3
:1013A000CF91089521960E944E03F5CFCF93DF93FE
:1013B00000D000D000D0CDB7DEB720E0EAE0F0E00A
:1013C000009761F480E0211115C00F900F900F90ED
:1013D0000F900F900F90DF91CF910895BF010E9461
:1013E000820DDE011196A20FB11D805D8C93CB01A1
:1013F0002F5FE6CF2150FE013196E20FF11D908163
:101400008927E1CF1F93CF93DF9300D000D000D086
:10141000CDB7DEB79C0110E0EAE0F0E0892B61F483
:1014200080E30F900F900F900F900F900F90DF912F
:10143000CF911F910C944E03C901BF010E94820DF0
:10144000DE011196A10FB11D1F5F805D8C93C90154
:101450009B010A9788F711110AC00F900F900F9007
:101460000F900F900F90DF91CF911F910895115021
:10147000FE013196E10FF11D80810E944E03EBCFFA
:10148000CF92DF92EF92FF920F931F93CF93DF9350
:101490008C01D62EC72E7A01452B21F48DE2E82E41
:1014A00081E0F82E95E0003187E2180778F4083ED5
:1014B00093E0190750F493E00436110538F491E0F5
:1014C0000A30110518F092E001C094E0ED2DFC2DDA
:1014D000D491D11157C0D7010D900020E9F7119791
:1014E000AE199D199B5FC92FCE0FCA0F8AE090E0FD
:1014F000C13308F03EC080E30115110519F0C801A1
:101500000E94D609ED2DFC2D2491922F21113CC073
:10151000F701208121113BC098279D278BE1D92F0E
:10152000D82782E00E944E038C2F0E944E0386E54E
:101530000E944E0381E30E944E038CE70E944E03FB
:10154000C8010E94020A8CE70E944E038D2D9C2D3B
:101550000E94C8098CE70E944E03F7018081811127
:1015600019C08D2F0E944E0383E00E944E0380E03D
:1015700090E0DF91CF911F910F91FF90EF90DF905E
:10158000CF9008953196A4CF3196D227BDCF319612
:101590009227BFCFEFEFEE1AFE0ADDCF0C94A10920
:1015A000AC016CEB70E080E090E00C94400AAB0181
:1015B00068EB70E00C94400A4DE251E063EB70E0A0
:1015C00080E090E00C94400A4DE251E06EEA70E059
:1015D00080E090E00C94400A4DE251E068EA70E04F
:1015E0000C94400ACF92DF92EF92FF920F931F93D9
:1015F000CF93DF938C016450710998E6E92E90E057
:10160000F92E6530710538F4660F771FFB01EF5D29
:10161000FE4FE080F18095E0003187E2180770F41A
:1016200094E0083E83E0180748F493E0043611057F
:1016300028F491E00A30110508F092E0E3EAF0E0C6
:101640008491811159C08E2FF701D490D11056C0CA
:1016500023EA30E0C5E0C21BCE19C90FC80FCE0F78
:101660008AE090E0C13308F03EC080E3C82E011547
:10167000110521F0C8010E94D609C82EE3EAF0E066
:101680008491D82F81113CC0F701849181113BC016
:1016900082E00E944E038C2F0E944E0386E50E943A
:1016A0004E0381E30E944E038CE70E944E03C80163
:1016B0000E94020A8CE70E944E0383EA90E00E9497
:1016C000C8098CE70E944E03C7010E94C8098D2FEC
:1016D0008C258D259BE189270E944E0383E00E9483
:1016E0004E0380E090E0DF91CF911F910F91FF902A
:1016F000EF90DF90CF9008953196A2CF3196A5CF8D
:101700003196D826BDCF3196D827BFCF6F927F9222
:101710008F929F92AF92BF92CF92DF92EF92FF9201
:101720000F931F93CF93DF930F92CDB7DEB76C016A
:101730000E9447042091FD013091FE01232B09F402
:1017400049C00091F6011091F7012091F801309104
:10175000F9010115110521053105E1F1601B710B3E
:10176000820B930B693E73408105910598F10E94AD
:10177000A10967E070E080E090E00E94F20A07E0D3
:1017800010E0C8010F90DF91CF911F910F91FF9052
:10179000EF90DF90CF90BF90AF909F908F907F9011
:1017A0006F9008950E9447046093F6017093F701CB
:1017B0008093F8019093F90189818230C1F481E02E
:1017C0008093FD011092FE011092FC011092FB012A
:1017D0001092FA010E947103811531F0CE01019639
:1017E0000E9469038111DECF01E010E0CACFE090D2
:1017F000FD01F090FE0193E0E916F10409F45AC0EE
:10180000B8F4F1E0EF16F10429F122E0E216F10458
:1018100009F790EE980F9F3598F10E94A10969E0B1
:1018200070E080E090E00E94F20A09E010E0A9CFA9
:1018300094E0E916F10471F6833009F44CC00E947B
:10184000A10966E070E080E090E00E94F20A03E007
:1018500010E097CF8093FC018150803358F00E94B4
:10186000A10964E070E080E090E00E94F20A04E0E8
:1018700010E087CF82E08093FD011092FE01AACF95
:10188000A091FB01E1E0EA0FE093FB01B0E0AB5374
:10189000BE4F8C939091FA0189278093FA01809131
:1018A000FC01E81708F496CFF0E0EB53FE4F1082EE
:1018B00083E0E1CF9091FA01981759F00E94A109B5
:1018C00065E070E080E090E00E94F20A05E010E040
:1018D00058CF84E0D0CF0E94A1096CE770E085EC7E
:1018E00091E00E94B80D4C01009709F4A0C0FC01E2
:1018F00011925F016CE770E0CF010E94B80D7A2C65
:101900006B2C009709F493C0FC0111928F016CE7D6
:1019100070E0CF010E94B80D5C01009709F487C008
:10192000FC0110826EE271E085EC91E00E94B40946
:10193000811509F47CC0F4018181811509F477C017
:10194000E72DF62DA0E0B0E0CD01408141115DC052
:10195000F6018083918361E371E0C8010E94B409BC
:10196000811168C065E371E0C8010E94B40981116A
:1019700075C069E371E0C8010E94B409811172C0A9
:101980006DE371E0C8010E94B409811156C060E4A2
:1019900071E0C8010E94B409811168C064E471E07B
:1019A000C8010E94B409811165C06BE471E0C801EF
:1019B0000E94B409811162C063E571E0C8010E9410
:1019C000B40981115FC069E571E0C8010E94B409E2
:1019D00081115CC06EE571E0C8010E94B4098111FB
:1019E00059C063E671E0C8010E94B409811156C074
:1019F000F60112821382148208E010E0B801F601A9
:101A0000808191810E94F20ABCCE40534A3078F422
:101A100031969C01AAE0B0E00E94670DDC01CB0189
:101A2000840F911DA11DB11D109709F48ECF06E002
:101A300010E0E4CFF1E0EF2EF12CF601E282F38228
:101A4000B5016F5F7F4F47E150E0C60104960E94E9
:101A5000C30DF601138E00E010E093CEE2E0EE2E0F
:101A6000F12CEBCF73E0E72EF12CE7CF65E0E62E0B
:101A7000F12CE3CF56E0E52EF12CDFCF47E0E42E4A
:101A8000F12CDBCF38E0E32EF12CD7CF29E0E22E8A
:101A9000F12CD3CF9AE0E92EF12CCFCF8BE0E82EBA
:101AA000F12CCBCF84B18C6284B924982A9A81E539
:101AB0008CBD1DBC08958EBD0DB407FEFDCF8EB547
:101AC00008950E94DF0078940E940D01FDCFA29F2F
:101AD000B001B39FC001A39F700D811D1124911D02
:101AE000B29F700D811D1124911D0895992778E0F2
:101AF000880F991F961708F0961B881F7A95C9F7CB
:101B000080950895AA1BBB1B51E107C0AA1FBB1FEC
:101B1000A617B70710F0A61BB70B881F991F5A9579
:101B2000A9F780959095BC01CD010895A1E21A2EE8
:101B3000AA1BBB1BFD010DC0AA1FBB1FEE1FFF1F71
:101B4000A217B307E407F50720F0A21BB30BE40BC1
:101B5000F50B661F771F881F991F1A9469F7609508
:101B60007095809590959B01AC01BD01CF010895C2
:101B7000FC018191861721F08823D9F799270895D0
:101B80003197CF010895FB01DC014150504048F0EE
:101B900001900D920020C9F701C01D9241505040A4
:081BA000E0F70895F894FFCF6F
:101BA800303132333435363738394142434445468B
:101BB800003132334134353642373839432A3023FD
:101BC800448B009600680073007B000D0A005631B4
:101BD80000554944005245515F50494E004F4B0053
:101BE800455252004C4F434B45440054494D454FD4
:101BF80055540052455345540050494E4700504FE4
:081C08004E47004E41434B0022
:00000001FF
